:020000040000FA
:020000000728CF
:080008008B13F4100900003015
:10001000A600A7000130A501A601A701A801A9011A
:1000200027202C201920312036201028871D162843
:100030000800A801A9010830A50026080310A70C94
:100040000318A807A90CA90CA50B1F280800162047
:100050000708A6008711080016200708A7008711C7
:1000600008002808870087158711080029088700DD
:10007000871587110800F930F0000000F00B3D28CB
:100080000800F1003B20F10B4228080008153B2036
:1000900008113B200800F500F0398800F418881496
:1000A00046203B20F50E7508F0398800F4188814B6
:1000B00046203B20080064304120F030F40030300E
:1000C000880046200530412046203B20462008126B
:1000D000462028304B2008304B2001304B20063082
:0C00E0004B2080304B200C304B200800DF
:02400E00313748
:00000001FF
