:020000040000FA
:02000000DE28F8
:080008008B13F4104922803033
:100010003922F4147621F414C030392201303E0222
:100020000319242802303E020319442803303E02FB
:100030000319C2303922F414982988010130BE0016
:1000400080303922F4148721C0303922F4148B1CFB
:100050003128B10A1030310203192F284028B1018C
:100060004028B50A2830350203193728D828B501A9
:10007000BE0A3108BC00F5213D08B607BD01402885
:10008000303031073922D828C1303922F4148B1C82
:100090005928B20A10303102031953280A303202AB
:1000A0000319572867281030320257286728B201F1
:1000B0006728B50A2830350203195F28D828B5010A
:1000C000BE0A3208BC003D08B607BD0167283030C3
:1000D00032073922D828F410C030392201303E02CC
:1000E0000319762802303E0203199628C0303922BF
:1000F000F4148B1C8328B30A1030330203198128AF
:100100009228B3019228B50A2830350203198928AC
:10011000D828B501BE0A3308BC00F5213D08B70751
:10012000BD019228303033073922D828C130392216
:10013000F4148B1CAB28B40A063033020319A5282B
:100140000A3034020319A928B92810303402A9282A
:10015000B928B401B928B50A283035020319B128E5
:10016000D828B501BE0A3408BC003D08B707BD0158
:10017000B928303034073922D828B501C70A0330EE
:1001800047020319C328C7010800B5010030470220
:100190000319CA28C03039223030310739223030B3
:1001A0003207392233073922303034073922080028
:1001B0003D3081008B100B118B1709000030B1000E
:1001C000B200B300B400B500C7010130BE00831611
:1001D0000313880183120313880106148810831205
:1001E0000313860188014922BC01BD01C401C50178
:1001F000B801B601B701C60133213321332183167B
:100200000313C730810083160313FF308600831267
:1002100003138B170B168B108B160B113D308100BF
:100220006C217121512163216721F4108030392222
:10023000F4142608AA07031C1E29A90A2508A907E1
:100240000800F41080303922F414D221F410C030A8
:100250003922F414FC21032216222E2983120313BF
:10026000861CDE282E294922F41080303922F4140D
:10027000B821F410C0303922F4149B21643042219B
:10028000880108000430B000C830AF00FA30AD007B
:1002900000000000AD0B4829AF0B4629B00B4429E4
:1002A0000800A501A6010830AC003608031058214B
:1002B000B40C0318A507A50CA60CAC0B5829080014
:1002C000871D6029080060210708290808006021AF
:1002D0000708AA00871108003608870087158711CC
:1002E0000800340887008715871108004E3039222E
:1002F000553039224D3039224230392245303922A9
:1003000052303922203039223130392208004E3023
:100310003922553039224D30392242303922453088
:100320003922523039222030392232303922080025
:100330005830392208004D303922553039224C309E
:1003400039225430392249303922503039224C3048
:100350003922493039224330392241303922543050
:100360003922493039224F3039224E3039220800A3
:1003700057303922453039224C3039224330392226
:100380004F3039224D303922453039222030392240
:10039000543039224F3039220800203039223D3084
:1003A00039220800F41080303922F41452303922F6
:1003B0004530392253303922553039224C303922D8
:1003C000543039222030392220303922203039224D
:1003D0002030392220303922203039222030392271
:1003E000203039222030392208000A30BB003C0876
:1003F000BD07BB0BF82908002908C600460EC60039
:100400002A08C604080003146430C602C20A03188E
:10041000052AC607C30303140930C602C40A031819
:100420000D2AC607C4034608C5000800F410C830EA
:100430003922F4143030C207C307C407C507392274
:100440004208392243083922440839224508392212
:100450000800F930F0000000F00B2B2A0800F10032
:100460002922F10B302A0800081529220811292217
:100470000800F500F0398800F41888143422292285
:10048000F50E7508F0398800F418881434222922F2
:10049000080064302F22F030F4003030880034221D
:1004A00005302F2234222922342208123422283007
:1004B0003922083039220130392206303922803081
:0804C00039220C30392208003A
:02400E00313748
:00000001FF
